:1008AC001A08008000C000EE00FF00EE00C00080BF
:0C08BC000040001100000011004000800E
:1008C900E4FFFEEF25E02408F808E6F5900FBF00E5
:0A08D900010EEF640D4E70EB80E697
:10088C00E4FDFCC3ED9FEC9E5015E4FBFA0BBB00A2
:0F089C00010ABA04F8BBFBF50DBD00010C80E4A6
:0108AB00222A
:03000000020800F3
:0C080000787FE4F6D8FD758121020847DE
:10080C000208C9E493A3F8E493A34003F68001F231
:10081C0008DFF48029E493A3F85407240CC8C333ED
:10082C00C4540F4420C8834004F456800146F6DFBC
:10083C00E4800B01020408102040809008ACE47E98
:10084C00019360BCA3FF543F30E509541FFEE493B1
:10085C00A360010ECF54C025E060A840B8E493A378
:10086C00FAE493A3F8E493A3C8C582C8CAC583CAA3
:10087C00F0A3C8C582C8CAC583CADFE9DEE780BE5B
:0108C800002F
:00000001FF
